:060000000A128A11F22F22
:100BD80078340034831203138C11760893008C192F
:100BE8000800F32D831203138C11831603131114B9
:100BF80083128C190800FC2D831203138C118316A1
:100C08000313111583128C190800062EF401F5013F
:100C1800701C142E7208F4070318F50A7308F507F8
:100C280001300310F20DF30DFF3E031D152E0130A8
:100C38000310F10CF00CFF3E031D1C2E700871040C
:100C4800031D0C2E7508F1007408F0000800FA0066
:100C58000A128A11F6250A128A11831203132E0822
:100C6800F7002D08F6000A128A11EE250A128A11D9
:100C78000030F600F7000A128A11EE250A128A11CE
:100C88007A08F800F9017808F6007908F7000A12DE
:100C98008A11EE250A128A110A128A110026080002
:100CA800AE300A128A112B260A128A118D300A12C6
:100CB8008A112B260A128A1114300A128A112B263D
:100CC8000A128A1120300A128A112B260A128A1156
:100CD80000300A128A112B260A128A11A1300A1230
:100CE8008A112B260A128A11C8300A128A112B2659
:100CF8000A128A11DA300A128A112B260A128A116C
:100D080012300A128A112B260A128A1181300A120D
:100D18008A112B260A128A119F300A128A112B2651
:100D28000A128A11AF300A128A112B2608000630DF
:100D3800831603139F001D3087009417141309307E
:100D48009300283083120313940083160313910130
:100D5800023083120313AC000430AB00B930AA0090
:100D6800AA0BB42EAB0BB42EAC0BB42EBB2E0A12AE
:100D78008A1154260A128A110A128A11F4260A12B2
:100D88008A11323083120313A0008930A1000A307F
:100D9800AA002A08A2004630AB002B08A3000A12BA
:100DA8008A1156270A128A11123083120313A000DF
:100DB8008830A100A201A3010A128A1156270A123B
:100DC8008A117A3083120313AC00C130AB00813032
:100DD800AA00AA0BED2EAB0BED2EAC0BED2EC52EFB
:100DE800FD0108307D020318080021300A128A111B
:100DF8002B260A128A1100300A128A112B260A128F
:100E08008A117F300A128A112B260A128A1122307F
:100E18000A128A112B260A128A117D080A128A11CF
:100E28002B260A128A117D08013E0A128A112B26E6
:100E38000A128A110A128A11F6250A128A118312D5
:100E480003132E08F7002D08F6000A128A11EE2562
:100E58000A128A114030F6000030F7000A128A118F
:100E6800EE250A128A11FC0180307C0203184C2FEF
:100E78000030F600F7000A128A11EE250A128A11CC
:100E88000130FB007B08FC0780307C02031C3C2FF0
:100E98000A128A1100260A128A110130FB007B0807
:100EA800FD07F52EFC0106307C02031808002130EE
:100EB8000A128A112B260A128A1183120313230895
:100EC8000A128A112B260A128A1183120313230885
:100ED800303E0A128A112B260A128A1122300A126F
:100EE8008A112B260A128A118312031322087C07FF
:100EF8000A128A112B260A128A1183120313220856
:100F08007C07013E0A128A112B260A128A110A123C
:100F18008A11F6250A128A11831203132E08F70084
:100F28002D08F6000A128A11EE250A128A1140309D
:100F3800F6000030F7000A128A11EE250A128A110B
:100F4800FB0130307B020318E62F7C088312031361
:100F5800A400A5012408F0002508F1003030F200B3
:100F68000030F3000A128A110A260A128A117B0835
:100F7800700783120313A60071080318710AA700EB
:100F880026082007840027080318270A2107FF00DE
:100F98000A128A1500200A128A11A800A901280835
:100FA800F6002908F7000A128A11EE250A128A119A
:100FB800013083120313A4002408FB0730307B029E
:100FC800031CA92F0A128A1100260A128A1101305D
:100FD80083120313A4002408FC07572F0A128A114E
:100FE800EC250A128A11AD000A128A11ED25AE000D
:100FF80083010A128A119B2EFF1B0A2883137F186C
:1010080083170008840A0319FF0A08007F087F393C
:101018008A000408840A0319FF0A82000034003495
:1010280000340034003400348034C034C034E03438
:10103800F034F034F8347C347C34FE34FE34FE343E
:101048007E343F341F340F340F34FF34FF34FF3401
:101058000F340F341F343F347E34FE34FE34FC34F6
:101068007C34F834F834F034F034E034C03480346C
:101078000034003400340034003400340034803448
:10108800E034F034FC34FE347F343F343F343F34B2
:101098003B343934F834FE34FF347F3477347134D8
:1010A800F034F034F034F034F034FF34FF34FF34EB
:1010B800F034F034F034F034F034713477347F3471
:1010C800FF34FC34F83439343B343F343F343F3454
:1010D800FF34FE34FC34F034C0340034F834FF34C8
:1010E800FF34FF34CF34C134C034C034C034C034CA
:1010F800C034FE34FF34FF34C134C034C034C0348B
:10110800C034C034C034C034C034FF34FF34FF347A
:10111800C034C034C034C034C034C034C034C03427
:10112800C134FF34FF34FC34C034C034C034C0345C
:10113800C034C334FF34FF34FF34FF343F34FF344A
:10114800FF34FF34E3340334033403340334033407
:101158000334FF34FF34FF340334033403340334DB
:1011680003340334033403340334FF34FF34FF34CB
:1011780003340334033403340334033403340334AF
:101188008334FF34FF347F340334033403340334AB
:1011980003348334F334FF34FF34FF340034013430
:1011A80007341F347F34FF34FC34F834F834FC340B
:1011B800BC343C341F347F34FF34FE34DE341E34F8
:1011C8001E340E340E340E340E34FF34FF34FF3424
:1011D8000E340E340E340E341E341E34DE34FE3417
:1011E800FF347F341F343C34BC34FC34F834F834D6
:1011F800FE34FF343F341F340334003400340034E9
:1012080000340034003400340134033407340F341C
:101218001F341F343E343E347D347F34FF34FF3472
:10122800FC34F834F034F034E034FF34FF34FF3465
:10123800E034F034F034FC34FE34FF34FF347F34CF
:101248007C343E343E341F341F340F3407340334A7
:1012580001340034003400340034003400340034E5
:1012680000340034003400348034803480348034D6
:101278000034003400340034FC34FE34FE34FE34D0
:10128800FF34FF34FC34F834F034E034F034F8340C
:10129800FE34FF34FF34FF34FF34FE34FE34803430
:1012A800803480348034C034E034E034E034C034F6
:1012B8008034003400340034003400340034003406
:1012C800003400340E343F347F34FF34FF34FF34AD
:1012D800FF34FF34FF347F343F341F341F340F345E
:1012E8000734073407340334033403340334033432
:1012F80003340734073407340F340F341F343F34B2
:101308007F34FF34FF34FF34FF34FF34FF349F341D
:10131800073402340034003400340034F834FC3428
:10132800FC34FC34FC34FC34FF34FF34FF34FF3429
:101338003F340734013400340034003400340034BE
:1013480000340034003400340034003400340034F5
:1013580000340034003400340034003400340034E5
:101368000034003401340F34FF34FF34FF34FF34C9
:10137800FF34FF34FF347F347F343F34003401348A
:101388008134C134C334FF34FF34FF34FF34FF34B5
:10139800FC34E03480340034003400340034003449
:1013A8000034003400340034003400340034003495
:1013B8000034003400340034003400340034003485
:1013C80000340034C034F034FF34FF34FF34FF34C9
:1013D800FF34FF34F834F834F034E03400340034A7
:1013E80007341F341F341F341F341F340F340F3495
:1013F8003F34FF34FF34FE34FC34F834F834F0342E
:10140800F034E034E034E034C034C034C034C034A4
:10141800C034E034E034E034F034F034F834FC34F0
:10142800FE34FF34FF34FF34FF34EF3487340334A1
:1014380003340734073407340734003400340034E5
:1014480000340034003400340034003400340034F4
:101458000C341F341F343F343F343F341F340F34AF
:1014680007340734073407343F34FF34FF34FF347C
:10147800FF34FF34FF340F340334033403340334AC
:1014880007340F341F341F340F3407340334003447
:0C14980000340034003400340034003410
:02400E007AFF37
:00000001FF
